{
  "_format": "hh-sol-artifact-1",
  "contractName": "PetTaming",
  "sourceName": "contracts/PetTaming.sol",
  "abi": [
    {
      "anonymous": false,
      "inputs": [
        {
          "indexed": true,
          "internalType": "uint256",
          "name": "userId",
          "type": "uint256"
        },
        {
          "indexed": true,
          "internalType": "uint256",
          "name": "targetPetId",
          "type": "uint256"
        },
        {
          "indexed": false,
          "internalType": "uint256",
          "name": "successRate",
          "type": "uint256"
        },
        {
          "indexed": false,
          "internalType": "bool",
          "name": "isSuccessful",
          "type": "bool"
        },
        {
          "indexed": false,
          "internalType": "uint256",
          "name": "timestamp",
          "type": "uint256"
        }
      ],
      "name": "TamingAttemptRecorded",
      "type": "event"
    },
    {
      "inputs": [
        {
          "internalType": "uint256",
          "name": "_userId",
          "type": "uint256"
        }
      ],
      "name": "getLatestAttempt",
      "outputs": [
        {
          "components": [
            {
              "internalType": "uint256",
              "name": "userId",
              "type": "uint256"
            },
            {
              "internalType": "uint256",
              "name": "targetPetId",
              "type": "uint256"
            },
            {
              "internalType": "uint256",
              "name": "successRate",
              "type": "uint256"
            },
            {
              "internalType": "uint256[]",
              "name": "usedNftIds",
              "type": "uint256[]"
            },
            {
              "internalType": "bool",
              "name": "isSuccessful",
              "type": "bool"
            },
            {
              "internalType": "uint256",
              "name": "timestamp",
              "type": "uint256"
            }
          ],
          "internalType": "struct PetTaming.TamingAttempt",
          "name": "",
          "type": "tuple"
        }
      ],
      "stateMutability": "view",
      "type": "function"
    },
    {
      "inputs": [
        {
          "internalType": "uint256",
          "name": "_userId",
          "type": "uint256"
        }
      ],
      "name": "getUserAttempts",
      "outputs": [
        {
          "components": [
            {
              "internalType": "uint256",
              "name": "userId",
              "type": "uint256"
            },
            {
              "internalType": "uint256",
              "name": "targetPetId",
              "type": "uint256"
            },
            {
              "internalType": "uint256",
              "name": "successRate",
              "type": "uint256"
            },
            {
              "internalType": "uint256[]",
              "name": "usedNftIds",
              "type": "uint256[]"
            },
            {
              "internalType": "bool",
              "name": "isSuccessful",
              "type": "bool"
            },
            {
              "internalType": "uint256",
              "name": "timestamp",
              "type": "uint256"
            }
          ],
          "internalType": "struct PetTaming.TamingAttempt[]",
          "name": "",
          "type": "tuple[]"
        }
      ],
      "stateMutability": "view",
      "type": "function"
    },
    {
      "inputs": [
        {
          "internalType": "uint256",
          "name": "_userId",
          "type": "uint256"
        },
        {
          "internalType": "uint256",
          "name": "_targetPetId",
          "type": "uint256"
        },
        {
          "internalType": "uint256",
          "name": "_successRate",
          "type": "uint256"
        },
        {
          "internalType": "uint256[]",
          "name": "_usedNftIds",
          "type": "uint256[]"
        },
        {
          "internalType": "bool",
          "name": "_isSuccessful",
          "type": "bool"
        }
      ],
      "name": "recordTamingAttempt",
      "outputs": [],
      "stateMutability": "nonpayable",
      "type": "function"
    },
    {
      "inputs": [
        {
          "internalType": "uint256",
          "name": "",
          "type": "uint256"
        },
        {
          "internalType": "uint256",
          "name": "",
          "type": "uint256"
        }
      ],
      "name": "userAttempts",
      "outputs": [
        {
          "internalType": "uint256",
          "name": "userId",
          "type": "uint256"
        },
        {
          "internalType": "uint256",
          "name": "targetPetId",
          "type": "uint256"
        },
        {
          "internalType": "uint256",
          "name": "successRate",
          "type": "uint256"
        },
        {
          "internalType": "bool",
          "name": "isSuccessful",
          "type": "bool"
        },
        {
          "internalType": "uint256",
          "name": "timestamp",
          "type": "uint256"
        }
      ],
      "stateMutability": "view",
      "type": "function"
    }
  ],
  "bytecode": "0x6080604052348015600f57600080fd5b50610d3b8061001f6000396000f3fe608060405234801561001057600080fd5b506004361061004c5760003560e01c8063508eda0a1461005157806366ffbc6c14610081578063b73365b1146100b1578063d4848d56146100cd575b600080fd5b61006b600480360381019061006691906105d4565b610101565b6040516100789190610763565b60405180910390f35b61009b600480360381019061009691906105d4565b610261565b6040516100a891906108d0565b60405180910390f35b6100cb60048036038101906100c69190610a77565b61036d565b005b6100e760048036038101906100e29190610b0e565b610488565b6040516100f8959493929190610b6c565b60405180910390f35b6101096104e8565b60008060008481526020019081526020016000208054905011610161576040517f08c379a000000000000000000000000000000000000000000000000000000000815260040161015890610c1c565b60405180910390fd5b6000808381526020019081526020016000206001600080858152602001908152602001600020805490506101959190610c6b565b815481106101a6576101a5610c9f565b5b90600052602060002090600602016040518060c00160405290816000820154815260200160018201548152602001600282015481526020016003820180548060200260200160405190810160405280929190818152602001828054801561022c57602002820191906000526020600020905b815481526020019060010190808311610218575b505050505081526020016004820160009054906101000a900460ff161515151581526020016005820154815250509050919050565b6060600080838152602001908152602001600020805480602002602001604051908101604052809291908181526020016000905b8282101561036257838290600052602060002090600602016040518060c00160405290816000820154815260200160018201548152602001600282015481526020016003820180548060200260200160405190810160405280929190818152602001828054801561032557602002820191906000526020600020905b815481526020019060010190808311610311575b505050505081526020016004820160009054906101000a900460ff1615151515815260200160058201548152505081526020019060010190610295565b505050509050919050565b60006040518060c0016040528087815260200186815260200185815260200184815260200183151581526020014281525090506000808781526020019081526020016000208190806001815401808255809150506001900390600052602060002090600602016000909190919091506000820151816000015560208201518160010155604082015181600201556060820151816003019080519060200190610416929190610520565b5060808201518160040160006101000a81548160ff02191690831515021790555060a08201518160050155505084867f0a2a6446a3af2dea13d25f43a01a540d7b77e14057786bde557b0fa6709ca82786854260405161047893929190610cce565b60405180910390a3505050505050565b600060205281600052604060002081815481106104a457600080fd5b9060005260206000209060060201600091509150508060000154908060010154908060020154908060040160009054906101000a900460ff16908060050154905085565b6040518060c0016040528060008152602001600081526020016000815260200160608152602001600015158152602001600081525090565b82805482825590600052602060002090810192821561055c579160200282015b8281111561055b578251825591602001919060010190610540565b5b509050610569919061056d565b5090565b5b8082111561058657600081600090555060010161056e565b5090565b6000604051905090565b600080fd5b600080fd5b6000819050919050565b6105b18161059e565b81146105bc57600080fd5b50565b6000813590506105ce816105a8565b92915050565b6000602082840312156105ea576105e9610594565b5b60006105f8848285016105bf565b91505092915050565b61060a8161059e565b82525050565b600081519050919050565b600082825260208201905092915050565b6000819050602082019050919050565b60006106488383610601565b60208301905092915050565b6000602082019050919050565b600061066c82610610565b610676818561061b565b93506106818361062c565b8060005b838110156106b2578151610699888261063c565b97506106a483610654565b925050600181019050610685565b5085935050505092915050565b60008115159050919050565b6106d4816106bf565b82525050565b600060c0830160008301516106f26000860182610601565b5060208301516107056020860182610601565b5060408301516107186040860182610601565b50606083015184820360608601526107308282610661565b915050608083015161074560808601826106cb565b5060a083015161075860a0860182610601565b508091505092915050565b6000602082019050818103600083015261077d81846106da565b905092915050565b600081519050919050565b600082825260208201905092915050565b6000819050602082019050919050565b600060c0830160008301516107c96000860182610601565b5060208301516107dc6020860182610601565b5060408301516107ef6040860182610601565b50606083015184820360608601526108078282610661565b915050608083015161081c60808601826106cb565b5060a083015161082f60a0860182610601565b508091505092915050565b600061084683836107b1565b905092915050565b6000602082019050919050565b600061086682610785565b6108708185610790565b935083602082028501610882856107a1565b8060005b858110156108be578484038952815161089f858261083a565b94506108aa8361084e565b925060208a01995050600181019050610886565b50829750879550505050505092915050565b600060208201905081810360008301526108ea818461085b565b905092915050565b600080fd5b6000601f19601f8301169050919050565b7f4e487b7100000000000000000000000000000000000000000000000000000000600052604160045260246000fd5b610940826108f7565b810181811067ffffffffffffffff8211171561095f5761095e610908565b5b80604052505050565b600061097261058a565b905061097e8282610937565b919050565b600067ffffffffffffffff82111561099e5761099d610908565b5b602082029050602081019050919050565b600080fd5b60006109c76109c284610983565b610968565b905080838252602082019050602084028301858111156109ea576109e96109af565b5b835b81811015610a1357806109ff88826105bf565b8452602084019350506020810190506109ec565b5050509392505050565b600082601f830112610a3257610a316108f2565b5b8135610a428482602086016109b4565b91505092915050565b610a54816106bf565b8114610a5f57600080fd5b50565b600081359050610a7181610a4b565b92915050565b600080600080600060a08688031215610a9357610a92610594565b5b6000610aa1888289016105bf565b9550506020610ab2888289016105bf565b9450506040610ac3888289016105bf565b935050606086013567ffffffffffffffff811115610ae457610ae3610599565b5b610af088828901610a1d565b9250506080610b0188828901610a62565b9150509295509295909350565b60008060408385031215610b2557610b24610594565b5b6000610b33858286016105bf565b9250506020610b44858286016105bf565b9150509250929050565b610b578161059e565b82525050565b610b66816106bf565b82525050565b600060a082019050610b816000830188610b4e565b610b8e6020830187610b4e565b610b9b6040830186610b4e565b610ba86060830185610b5d565b610bb56080830184610b4e565b9695505050505050565b600082825260208201905092915050565b7f4e6f20617474656d70747320666f756e6420666f722074686973207573657200600082015250565b6000610c06601f83610bbf565b9150610c1182610bd0565b602082019050919050565b60006020820190508181036000830152610c3581610bf9565b9050919050565b7f4e487b7100000000000000000000000000000000000000000000000000000000600052601160045260246000fd5b6000610c768261059e565b9150610c818361059e565b9250828203905081811115610c9957610c98610c3c565b5b92915050565b7f4e487b7100000000000000000000000000000000000000000000000000000000600052603260045260246000fd5b6000606082019050610ce36000830186610b4e565b610cf06020830185610b5d565b610cfd6040830184610b4e565b94935050505056fea2646970667358221220b98e82354c0962a183f4cabd9d6cc94a186867c2be9bde37a5b5fb888a2eee3b64736f6c634300081c0033",
  "linkReferences": {},
  "deployedLinkReferences": {}
}