{
  "_format": "hh-sol-artifact-1",
  "contractName": "PetTaming",
  "sourceName": "contracts/PetTaming.sol",
  "abi": [
    {
      "anonymous": false,
      "inputs": [
        {
          "indexed": true,
          "internalType": "uint256",
          "name": "userId",
          "type": "uint256"
        },
        {
          "indexed": true,
          "internalType": "uint256",
          "name": "targetPetId",
          "type": "uint256"
        },
        {
          "indexed": false,
          "internalType": "uint256",
          "name": "successRate",
          "type": "uint256"
        },
        {
          "indexed": false,
          "internalType": "bool",
          "name": "isSuccessful",
          "type": "bool"
        },
        {
          "indexed": false,
          "internalType": "uint256",
          "name": "timestamp",
          "type": "uint256"
        }
      ],
      "name": "TamingAttemptRecorded",
      "type": "event"
    },
    {
      "inputs": [
        {
          "internalType": "uint256",
          "name": "_userId",
          "type": "uint256"
        }
      ],
      "name": "getLatestAttempt",
      "outputs": [
        {
          "components": [
            {
              "internalType": "uint256",
              "name": "userId",
              "type": "uint256"
            },
            {
              "internalType": "uint256",
              "name": "targetPetId",
              "type": "uint256"
            },
            {
              "internalType": "uint256",
              "name": "successRate",
              "type": "uint256"
            },
            {
              "internalType": "uint256[]",
              "name": "nftList",
              "type": "uint256[]"
            },
            {
              "internalType": "bool",
              "name": "isSuccessful",
              "type": "bool"
            },
            {
              "internalType": "uint256",
              "name": "timestamp",
              "type": "uint256"
            }
          ],
          "internalType": "struct PetTaming.ReadableTamingAttempt",
          "name": "",
          "type": "tuple"
        }
      ],
      "stateMutability": "view",
      "type": "function"
    },
    {
      "inputs": [
        {
          "internalType": "uint256",
          "name": "_userId",
          "type": "uint256"
        }
      ],
      "name": "getUserAttempts",
      "outputs": [
        {
          "components": [
            {
              "internalType": "uint256",
              "name": "userId",
              "type": "uint256"
            },
            {
              "internalType": "uint256",
              "name": "targetPetId",
              "type": "uint256"
            },
            {
              "internalType": "uint256",
              "name": "successRate",
              "type": "uint256"
            },
            {
              "internalType": "uint256[]",
              "name": "nftList",
              "type": "uint256[]"
            },
            {
              "internalType": "bool",
              "name": "isSuccessful",
              "type": "bool"
            },
            {
              "internalType": "uint256",
              "name": "timestamp",
              "type": "uint256"
            }
          ],
          "internalType": "struct PetTaming.ReadableTamingAttempt[]",
          "name": "",
          "type": "tuple[]"
        }
      ],
      "stateMutability": "view",
      "type": "function"
    },
    {
      "inputs": [
        {
          "internalType": "uint256",
          "name": "_userId",
          "type": "uint256"
        },
        {
          "internalType": "uint256",
          "name": "_targetPetId",
          "type": "uint256"
        },
        {
          "internalType": "uint256",
          "name": "_successRate",
          "type": "uint256"
        },
        {
          "internalType": "uint256[]",
          "name": "_usedNftIds",
          "type": "uint256[]"
        },
        {
          "internalType": "bool",
          "name": "_isSuccessful",
          "type": "bool"
        }
      ],
      "name": "recordTamingAttempt",
      "outputs": [],
      "stateMutability": "nonpayable",
      "type": "function"
    },
    {
      "inputs": [
        {
          "internalType": "uint256",
          "name": "",
          "type": "uint256"
        },
        {
          "internalType": "uint256",
          "name": "",
          "type": "uint256"
        }
      ],
      "name": "userAttempts",
      "outputs": [
        {
          "internalType": "uint256",
          "name": "userId",
          "type": "uint256"
        },
        {
          "internalType": "uint256",
          "name": "targetPetId",
          "type": "uint256"
        },
        {
          "internalType": "uint256",
          "name": "successRate",
          "type": "uint256"
        },
        {
          "internalType": "bool",
          "name": "isSuccessful",
          "type": "bool"
        },
        {
          "internalType": "uint256",
          "name": "timestamp",
          "type": "uint256"
        }
      ],
      "stateMutability": "view",
      "type": "function"
    }
  ],
  "bytecode": "0x6080604052348015600f57600080fd5b50610f028061001f6000396000f3fe608060405234801561001057600080fd5b506004361061004c5760003560e01c8063508eda0a1461005157806366ffbc6c14610081578063b73365b1146100b1578063d4848d56146100cd575b600080fd5b61006b6004803603810190610066919061079b565b610101565b604051610078919061092a565b60405180910390f35b61009b6004803603810190610096919061079b565b6102ad565b6040516100a89190610a97565b60405180910390f35b6100cb60048036038101906100c69190610c3e565b610534565b005b6100e760048036038101906100e29190610cd5565b61064f565b6040516100f8959493929190610d33565b60405180910390f35b6101096106af565b60008060008481526020019081526020016000208054905011610161576040517f08c379a000000000000000000000000000000000000000000000000000000000815260040161015890610de3565b60405180910390fd5b60008060008481526020019081526020016000206001600080868152602001908152602001600020805490506101979190610e32565b815481106101a8576101a7610e66565b5b90600052602060002090600602016040518060c00160405290816000820154815260200160018201548152602001600282015481526020016003820180548060200260200160405190810160405280929190818152602001828054801561022e57602002820191906000526020600020905b81548152602001906001019080831161021a575b505050505081526020016004820160009054906101000a900460ff1615151515815260200160058201548152505090506040518060c00160405280826000015181526020018260200151815260200182604001518152602001826060015181526020018260800151151581526020018260a00151815250915050919050565b60606000806000848152602001908152602001600020805480602002602001604051908101604052809291908181526020016000905b828210156103b057838290600052602060002090600602016040518060c00160405290816000820154815260200160018201548152602001600282015481526020016003820180548060200260200160405190810160405280929190818152602001828054801561037357602002820191906000526020600020905b81548152602001906001019080831161035f575b505050505081526020016004820160009054906101000a900460ff16151515158152602001600582015481525050815260200190600101906102e3565b5050505090506000815167ffffffffffffffff8111156103d3576103d2610acf565b5b60405190808252806020026020018201604052801561040c57816020015b6103f96106af565b8152602001906001900390816103f15790505b50905060005b8251811015610529576040518060c0016040528084838151811061043957610438610e66565b5b602002602001015160000151815260200184838151811061045d5761045c610e66565b5b602002602001015160200151815260200184838151811061048157610480610e66565b5b60200260200101516040015181526020018483815181106104a5576104a4610e66565b5b60200260200101516060015181526020018483815181106104c9576104c8610e66565b5b602002602001015160800151151581526020018483815181106104ef576104ee610e66565b5b602002602001015160a0015181525082828151811061051157610510610e66565b5b60200260200101819052508080600101915050610412565b508092505050919050565b60006040518060c00160405280878152602001868152602001858152602001848152602001831515815260200142815250905060008087815260200190815260200160002081908060018154018082558091505060019003906000526020600020906006020160009091909190915060008201518160000155602082015181600101556040820151816002015560608201518160030190805190602001906105dd9291906106e7565b5060808201518160040160006101000a81548160ff02191690831515021790555060a08201518160050155505084867f0a2a6446a3af2dea13d25f43a01a540d7b77e14057786bde557b0fa6709ca82786854260405161063f93929190610e95565b60405180910390a3505050505050565b6000602052816000526040600020818154811061066b57600080fd5b9060005260206000209060060201600091509150508060000154908060010154908060020154908060040160009054906101000a900460ff16908060050154905085565b6040518060c0016040528060008152602001600081526020016000815260200160608152602001600015158152602001600081525090565b828054828255906000526020600020908101928215610723579160200282015b82811115610722578251825591602001919060010190610707565b5b5090506107309190610734565b5090565b5b8082111561074d576000816000905550600101610735565b5090565b6000604051905090565b600080fd5b600080fd5b6000819050919050565b61077881610765565b811461078357600080fd5b50565b6000813590506107958161076f565b92915050565b6000602082840312156107b1576107b061075b565b5b60006107bf84828501610786565b91505092915050565b6107d181610765565b82525050565b600081519050919050565b600082825260208201905092915050565b6000819050602082019050919050565b600061080f83836107c8565b60208301905092915050565b6000602082019050919050565b6000610833826107d7565b61083d81856107e2565b9350610848836107f3565b8060005b838110156108795781516108608882610803565b975061086b8361081b565b92505060018101905061084c565b5085935050505092915050565b60008115159050919050565b61089b81610886565b82525050565b600060c0830160008301516108b960008601826107c8565b5060208301516108cc60208601826107c8565b5060408301516108df60408601826107c8565b50606083015184820360608601526108f78282610828565b915050608083015161090c6080860182610892565b5060a083015161091f60a08601826107c8565b508091505092915050565b6000602082019050818103600083015261094481846108a1565b905092915050565b600081519050919050565b600082825260208201905092915050565b6000819050602082019050919050565b600060c08301600083015161099060008601826107c8565b5060208301516109a360208601826107c8565b5060408301516109b660408601826107c8565b50606083015184820360608601526109ce8282610828565b91505060808301516109e36080860182610892565b5060a08301516109f660a08601826107c8565b508091505092915050565b6000610a0d8383610978565b905092915050565b6000602082019050919050565b6000610a2d8261094c565b610a378185610957565b935083602082028501610a4985610968565b8060005b85811015610a855784840389528151610a668582610a01565b9450610a7183610a15565b925060208a01995050600181019050610a4d565b50829750879550505050505092915050565b60006020820190508181036000830152610ab18184610a22565b905092915050565b600080fd5b6000601f19601f8301169050919050565b7f4e487b7100000000000000000000000000000000000000000000000000000000600052604160045260246000fd5b610b0782610abe565b810181811067ffffffffffffffff82111715610b2657610b25610acf565b5b80604052505050565b6000610b39610751565b9050610b458282610afe565b919050565b600067ffffffffffffffff821115610b6557610b64610acf565b5b602082029050602081019050919050565b600080fd5b6000610b8e610b8984610b4a565b610b2f565b90508083825260208201905060208402830185811115610bb157610bb0610b76565b5b835b81811015610bda5780610bc68882610786565b845260208401935050602081019050610bb3565b5050509392505050565b600082601f830112610bf957610bf8610ab9565b5b8135610c09848260208601610b7b565b91505092915050565b610c1b81610886565b8114610c2657600080fd5b50565b600081359050610c3881610c12565b92915050565b600080600080600060a08688031215610c5a57610c5961075b565b5b6000610c6888828901610786565b9550506020610c7988828901610786565b9450506040610c8a88828901610786565b935050606086013567ffffffffffffffff811115610cab57610caa610760565b5b610cb788828901610be4565b9250506080610cc888828901610c29565b9150509295509295909350565b60008060408385031215610cec57610ceb61075b565b5b6000610cfa85828601610786565b9250506020610d0b85828601610786565b9150509250929050565b610d1e81610765565b82525050565b610d2d81610886565b82525050565b600060a082019050610d486000830188610d15565b610d556020830187610d15565b610d626040830186610d15565b610d6f6060830185610d24565b610d7c6080830184610d15565b9695505050505050565b600082825260208201905092915050565b7f4e6f20617474656d70747320666f756e6420666f722074686973207573657200600082015250565b6000610dcd601f83610d86565b9150610dd882610d97565b602082019050919050565b60006020820190508181036000830152610dfc81610dc0565b9050919050565b7f4e487b7100000000000000000000000000000000000000000000000000000000600052601160045260246000fd5b6000610e3d82610765565b9150610e4883610765565b9250828203905081811115610e6057610e5f610e03565b5b92915050565b7f4e487b7100000000000000000000000000000000000000000000000000000000600052603260045260246000fd5b6000606082019050610eaa6000830186610d15565b610eb76020830185610d24565b610ec46040830184610d15565b94935050505056fea2646970667358221220abb672042dfed9ab5a01431aafd13d6711ebd07ef87ac334a1dd646e4180fed864736f6c634300081c0033",
  "linkReferences": {},
  "deployedLinkReferences": {}
}